:020000040000fa
:080000000002040000000000f2
:020000040000fa
:100400000f8120000ebf20000e01880000000000b8
:100410000c000700e09220000100200011000700fe
:10042000000020000000e000020032000000020096
:1004300000000000ba070200000000000040da00df
:100440000000fe004440a900000020000000e00081
:100450000300320000002000a00188004440a800f2
:100460000000060091018800800078000000eb0089
:1004700015003700e280400032a0b4009101ba00bc
:10048000e280400032a0b4009102ba00e280400055
:1004900032a0b4000002eb00472bde00f507b200eb
:1004a000602ce10004003a000059eb008301e900f0
:1004b000fdff3e00040037006128e100010032002a
:1004c0000082eb00040007001101ba000200e00006
:1004d000e8ff3a00000006003159ba008301e90044
:1004e0000c0032002159ba008301e90008003200f3
:1004f0000400e00003003a00e280400032a0b400b3
:10050000f5ff370011d9ba008301e900faff3a007c
:100510008100e800e180400032a0b4000000060045
:100520000040da000000fe004f89de008201780002
:100530003800370007f0a2006d003700809feb0005
:10054000e80007008f87e9000000e00000000600d7
:100550008f1fd100e30007008f87e9000000e00053
:10056000000006001400fa00889fbe008a9fbe00ab
:100570008c9fbe000004be000205be00680047005c
:100580000a90be000890be00ff0007000070a700a0
:100590000bf0a100304320009e02900080825200a8
:1005a000b0fe2f000028e10011003d00b0fc2f003c
:1005b0000028e100150034001e0990008e0890000c
:1005c0007e0090000501b0000201d1008180d300bf
:1005d0000080d3008502e800fbff3a000b00e0003a
:1005e00024013b0060001000e0801800210137006a
:1005f000f0ff2f00f1ff27000b00e0001d013b0082
:1006000001002800000020001a0137006000b80037
:1006100018013700889fbe00830478000300e000c3
:100620002c00350003003c000082700004027100c1
:100630002600320036432000c50020008383cf000f
:100640000a0039000541b1008283cf00070039005c
:100650000541b1008183cf00040039000541b1009c
:100660008083cf00010039000541b10085c35300ec
:100670006022b800120032000a003b00848272003f
:10068000610260008301d1000281d3008180d30028
:100690000080d3000603e8008743e800f7ff3a0034
:1006a0000700370000004000818048000201490037
:1006b000838149000603e9008743e900f9ff3a0016
:1006c000f100070009f0a70003f0a0004f04be00ee
:1006d0000000060060001000e080180060011900b2
:1006e000e0811900d3ff3b00033e2c00f7ff3700e9
:1006f0002800fa00889fbe008a9fbe008c9fbe0023
:1007000007067800878669000c003b000304780028
:100710008704780008f0a10009f0a100840f5000c0
:10072000858f5800860f5900890f5c000300330045
:100730000cf0a20001003a000cf0a100b900070083
:100740006400e1005f003200780147006408e100c6
:10075000610032006c014700748557003200be0012
:100760001201be003a04be001a05be001e0390002e
:10077000be0a90008503530006003d000004fd0002
:100780008104fd000205fd008305fd008703ea00ea
:10079000050378000df8a300040032006004140083
:1007a000e0841c0060051d00e0851d006022b8008b
:1007b0007d0320000d38e1008006eb000b003900be
:1007c0004433dd00f300b2008301730039003700c9
:1007d000848272000d027800e10664008b85d100ee
:1007e0000a85d3008984d3000884d3008703e900f5
:1007f000f7ff3b0008004000898048000a014900db
:100800008b81490004003b0060001000e08018006c
:1008100060011900e08119000358a30009003200ab
:100820008d82720084827200610260008301d100b7
:100830000281d3008180d3000080d3000603e8004a
:100840001b0037000348a30017003a000600e00031
:10085000170034000603e9000d00a3000000480063
:100860008180480002014900838149000348a300b8
:100870000f003a000600e000090034000603e9001a
:100880000000400081804800020149008381490046
:1008900001003a000003eb000348a300f5ff32001b
:1008a0006022b80002003700848272006182660014
:1008b0007500070003f0a1000cf0a70003f0a000f2
:1008c0006c003700640147006408e10002003a0050
:1008d0000df8a30064003a003200be001201be0011
:1008e00064003700889fbe008a9fbe008c9fbe00b8
:1008f0000404be000605be00809fbe00829fbe00ad
:100900008d000700040678000800be000a01be0042
:1009100089000700840678004f03be004f02be0026
:100920008d4f76007fb0970013003300f0ff2f004b
:100930008b8f6b0006003b000d0666000c00a700c5
:100940000a00370007f0a600100020000a00370058
:10095000880f5200898f5a008a0f5b008b8f5b00d3
:10096000030039001000200001003e0000002000bc
:1009700007f0a7000000ea004f06be004f05be00ca
:100980004f04be0000000600800078005002be0048
:100990005003be004439de00f700b200f37f2000b0
:1009a00003016100090032000218e10016003a005c
:1009b00085017200830173008381730000082000a9
:1009c00015003a0040002000130037008501720036
:1009d000830173008381730005003a0004a8be0000
:1009e00006a8be00100020000b0037000201e9003d
:1009f0000402420085824a0006034b0087834b00b5
:100a00000748a300f9ff32000740a00004a8be0079
:100a100006a8be00200020008000980092009800e8
:100a200000000600680447000294be000094be0067
:100a3000fc0447008694be008494be000900780040
:100a4000d1ff070008007800cfff07009900780069
:100a5000814f70000b003b000800be0048000700fb
:100a60004f00b10003003700f3ff2700f2ff2f0013
:100a70006110b9004f06be004f05be004f04be0016
:100a80000080fa0000000600180020005700200037
:100a9000080453000d003d000600200097fc2f00c5
:100aa0000740e1001e003400848272006102600091
:100ab0008301d1000281d3008180d3000080d30064
:100ac0000804e800f8ff3a004700200061046000d5
:100ad00005047400040464000d003200610040004d
:100ae000e080480060014900e081490003b8a500aa
:100af000070032000603e8006538e10004003a0010
:100b00008301d1000281d3008180d3000080d30013
:100b1000f87f20000830e10003003500080378006a
:100b20006000b8006011b8004433dd00f300b2008b
:100b3000830173000000060005ff270005826100a5
:100b4000070032000428e100010032002400050003
:100b50000600070001003a004400050004080500f3
:100b600002000700f9ff3a00140005006f826100df
:100b7000810270008502710085027200000006008b
:100b8000e48240001078a3000700320064024000b5
:100b90001178a3003400be001401be00040032002e
:100ba0000330a700000006003500be001501be009e
:080bb0000330a0000000060064
:020000040000fa
:0200000401f009
:04000000ffff0000fe
:020000040000fa
:0200000401f009
:04000800ffff0000f6
:020000040000fa
:0200000401f009
:04000c00f9ff0000f8
:020000040000fa
:0200000401f009
:04001000ffff0000ee
:020000040000fa
:0200000401f009
:040014007fff00006a
:020000040000fa
:0200000401f009
:04001800ffff0000e6
:020000040000fa
:0200000401f009
:04001c00feff0000e3
:020000040000fa
:1000080090020000900200009002000090020000a0
:100018009002000090020000900200009002000090
:100028003407000090020000900200009c070000c6
:100038009002000090020000900200009002000070
:100048009002000090020000900200009002000060
:100058009002000090020000900200009002000050
:100068009002000090020000900200009002000040
:100078009002000090020000900200009002000030
:100088009002000090020000900200009002000020
:100098009002000090020000900200009002000010
:1000a8009002000090020000900200009002000000
:1000b80090020000900200009002000090020000f0
:1000c80090020000900200009002000090020000e0
:1000d80090020000900200009002000090020000d0
:1000e80090020000900200009002000090020000c0
:1000f80090020000900200009002000090020000b0
:10010800900200000007000090020000900200002a
:1001180090020000900200009002000028070000f2
:10012800900200009002000090020000900200007f
:10013800900200009002000090020000900200006f
:10014800900200009002000090020000900200005f
:10015800900200009002000090020000900200004f
:10016800900200009002000090020000900200003f
:10017800900200009002000090020000900200002f
:10018800900200009002000090020000900200001f
:10019800900200009002000090020000900200000f
:1001a80090020000900200009002000090020000ff
:1001b80090020000900200009002000090020000ef
:1001c80090020000900200009002000090020000df
:1001d80090020000900200009002000090020000cf
:1001e80090020000900200009002000090020000bf
:0801f8009002000090020000db
:020000040000fa
:10020800900200009002000090020000900200009e
:10021800900200009002000090020000900200008e
:100228003407000090020000900200009c070000c4
:10023800900200009002000090020000900200006e
:10024800900200009002000090020000900200005e
:10025800900200009002000090020000900200004e
:10026800900200009002000090020000900200003e
:10027800900200009002000090020000900200002e
:10028800900200009002000090020000900200001e
:10029800900200009002000090020000900200000e
:1002a80090020000900200009002000090020000fe
:1002b80090020000900200009002000090020000ee
:1002c80090020000900200009002000090020000de
:1002d80090020000900200009002000090020000ce
:1002e80090020000900200009002000090020000be
:1002f80090020000900200009002000090020000ae
:100308009002000000070000900200009002000028
:1003180090020000900200009002000028070000f0
:10032800900200009002000090020000900200007d
:10033800900200009002000090020000900200006d
:10034800900200009002000090020000900200005d
:10035800900200009002000090020000900200004d
:10036800900200009002000090020000900200003d
:10037800900200009002000090020000900200002d
:10038800900200009002000090020000900200001d
:10039800900200009002000090020000900200000d
:1003a80090020000900200009002000090020000fd
:1003b80090020000900200009002000090020000ed
:1003c80090020000900200009002000090020000dd
:1003d80090020000900200009002000090020000cd
:1003e80090020000900200009002000090020000bd
:0803f8009002000090020000d9
:020000040000fa
:100bb8007007a8007067a80070a7a80070e7a800d1
:100bc8007187a80071a7a8007207a8007227a8005b
:100bd8007307a8007327a80073c7a80073e7a800c5
:100be8007487a8007127a9007147a9007167a90037
:100bf8007187a9000000060081e0a8008200a90012
:100c08008400a9008b20a9008be0a9009400a8000b
:100c18009b20a8009be0a80001022800210888006a
:100c2800e0db2100100888009460a8008460a90017
:100c3800810888000ca1ef0094e0a90084e0a900d5
:100c48000000060070c0b300e161b700e0e1a80051
:100c5800e0c1a800e2e1a800e2c1bf00f1c8b3000a
:100c6800014060000064a000e2e1b700e6a1ef00e7
:100c78000000060062042000730520002174200093
:100c8800824878008348780042c7a9009cc6bf0004
:100c980001ceb300014060000004a0009ce6b7004c
:100ca8009dc6bf00014060009de6b700c8c6bf00f2
:100cb80001406000a041b300c8e6b70098c6bf0075
:100cc800014060000024a00098e6b70062042000fc
:100cd800730520002174200082487800834878003a
:100ce80042c7a800cda2a900cd82a900cd22a900a3
:100cf800c442a900c462a90030012000001688007f
:100d080030092000401688000000060048c7bf00d0
:100d180001ccb300014060009041b30048e7b70040
:100d280044c7bf0001ceb300014060005040b3008b
:100d380044e7b700303a800001e02f00010060006e
:100d4800b007b300303a880044c7bf00f043b20090
:100d580044e7b70000000600c1e1a900c0c1bf0018
:100d6800c1cfb30001406000c0e1b700c0c1bf00ff
:100d780031cfb30001406000c0e1b700f047200068
:100d8800200e880000cfb300c061b700ca41a90097
:100d9800ca01a900ca21a800d0e1a800d121a90050
:100da800d101a900d001a800c901a800c881a800e4
:100db800c801a800c8a1a900c821a900c1e1a800cc
:100dc800000006000000e00006003d00d421a90054
:100dd800d521a8000000ea00b00e8800d501a900be
:100de80000000600d401a900d501a800b00e8800b3
:100df800d521a90000000600809fbe00821f780050
:100e0800004080008000ea00008070004f00de0093
:100e18006101100002408800e140610081c040008b
:100e2800cdc2bf000014a10001407000cde2b700a0
:100e3800020078000c28b7008b20a9004f01780029
:100e48004f00be0000400600801f78001000200000
:100e5800704088008be0a9004f0078000040060031
:100e6800809fbe003108800030bf2600808f500070
:100e78001c003e003108800070602100808f500007
:100e880007003e00c08f2000104088000428ef00b3
:100e980080c0b30007e8b700d0c0b3000600370031
:100ea80040832000104088000428ef0040c1b300b0
:100eb80007e8b70090c1b30006e8b700c2c2bf0098
:100ec8000048a30002003200400020000100370063
:100ed800c0ff2f000a28b40040c0b30008e8b700dc
:100ee8000e00370040832000104088000428ef00df
:100ef80040c1b30007e8b70090c1b30006e8b700e7
:100f0800c2c2bf000048a300020032000a28ec0059
:100f1800010037000a28ed000868ef000621ef00fd
:100f28000021ef008400a9004f00be000040060029
:100f3800801f780008c8bf00e24f500008003c003e
:100f48000040e80008e8b700c2c2bf000048a3009c
:100f5800020032000a28ec00010037000a28ed00e0
:100f68008460a9004f00780000400600fa87470017
:100f7800889fbe008a9fbe008c9fbe008e1f78008f
:100f880048c7bf0001ccb300014060009041b300e6
:100f980048e7b70044c7bf0001ceb3000140600076
:100fa8005040b30044e7b700303a800001e02f001a
:100fb80001006000b007b300303a880044c7bf00a2
:100fc800f043b20044e7b7002aff07001dff0700ff
:100fd80061ff070008ff0700f5fe070040c0b300e7
:100fe80008e8b70010002000704088004083200007
:100ff800104088000428ef0040c1b30007e8b7009c
:1010080090c1b30006e8b70029003700d8af9f00a9
:10101800e9af9f00faaf9f008bb79f000c08e20072
:10102800feff32000c28ef00280f8000714080007e
:10103800cac2bf000080fb004400de000000a2001e
:101048006100600080807000080032000e28ef0008
:10105800584088006000b8006011b800d0af9f0009
:10106800e1af9f00f2af9f0083b79f00514080001f
:10107800088750008e00780001003b008e00ea00cf
:10108800ff8f500002003c00cda2a8000f003700df
:10109800cda2a90080612000808f50000b00340091
:1010a800cd82a8000000eb0046ff070058408800ea
:1010b8006000b8006011b800d0af9f00e1af9f009a
:1010c800f2af9f0083b79f00d4ff3700cd82a900fd
:1010d80007c8bf000000fb006280200012417800b2
:1010e8000201fb00020040000e80b8000cfd070062
:1010f8000002be000203be005fa89700efa8970099
:101108007fa997008fb1970008fd07000004be0073
:101118000205be001c4080002d4080000c00be006f
:10112800fffc070090b79f00a1b79f00b2b79f00d0
:10113800c3b79f000002be000203be000800be0045
:101148000a01be00fbfc07000000e00005003400b7
:101158001fb49700afb497003fb59700cfb597007d
:101168001200370060001600e0801e00ecfc07004b
:10117800d0b79f00e1b79f00f2b79f0083bf9f00e1
:101188000002be000203be000800be000a01be0045
:10119800edfc07000000e00004003d005fb497008c
:1011a800efb497007fb597008fbd97000800be0089
:1011b8000a01be00e9fc070002ff070006c8bf00dd
:1011c8000000fb000e80b800d5fc0700d0af9f00e0
:1011d800e1af9f00f2af9f0083b79f001c408000e3
:1011e8002d4080000c00be00cdfc07000004be00ae
:1011f8000205be000002be000203be005fa8970001
:10120800efa897007fa997008fb19700c9fc070046
:101218000000e0007dff3c0060001600e0801e003a
:10122800bffc07000004be000205be000002be00ad
:101238000203be005fa89700efa897007fa9970058
:101248008fb19700c0fc07000000e00073ff3d006d
:041258006eff3700ee
:020000040000fa
:10125c00000800001000000000000000000000006a
:00000001FF
