:020000040000fa
:080000000002040000000000f2
:020000040000fa
:100400006f8120000ebf20000e0188000000000058
:100410000c000700c0ae2000010020001100070002
:10042000000020000000e000020032000000020096
:10043000000000007e080200000000000040da001a
:100440000000fe004440a900000020000000e00081
:100450000300320000002000a00188004440a800f2
:100460000000060091018800800078000000eb0089
:1004700015003700e280400032a0b4009101ba00bc
:10048000e280400032a0b4009102ba00e280400055
:1004900032a0b4000002eb00472bde00f507b200eb
:1004a000602ce10004003a000059eb008301e900f0
:1004b000fdff3e00040037006128e100010032002a
:1004c0000082eb00040007001101ba000200e00006
:1004d000e8ff3a00000006003159ba008301e90044
:1004e0000c0032002159ba008301e90008003200f3
:1004f0000400e00003003a00e280400032a0b400b3
:10050000f5ff370011d9ba008301e900faff3a007c
:100510008100e800e180400032a0b4000000060045
:100520004f89de00820178003800370007f0a20012
:100530006d0037008f1fd100e80007008f87e900aa
:100540000000e00000000600809feb00e3000700d1
:100550008f87e9000000e000000006001400fa00a8
:10056000889fbe008a9fbe008c9fbe000004be0014
:100570000205be00680047000a90be000890be0059
:10058000ff0007000070a7000bf0a100304320001f
:100590009e02900080825200b0fe2f000028e100f1
:1005a00011003d00b0fc2f000028e10015003400d0
:1005b0001e0990008e0890007e0090000501b0009a
:1005c0000201d1008180d3000080d3008502e800c1
:1005d000fbff3a000b00e00024013b00600010002c
:1005e000e080180021013700f0ff2f00f1ff270005
:1005f0000b00e0001d013b0001002800000020006e
:100600001a0137006000b80018013700889fbe004b
:10061000830478000300e0002c00350003003c0058
:100620000082700004027100260032003643200070
:10063000c50020008383cf000a0039000541b100c6
:100640008283cf00070039000541b1008183cf00cc
:10065000040039000541b1008083cf00010039005a
:100660000541b10085c353006022b800120032007a
:100670000a003b0084827200610260008301d100a5
:100680000281d3008180d3000080d3000603e800fc
:100690008743e800f7ff3a000700370000004000fa
:1006a0008180480002014900838149000603e90076
:1006b0008743e900f9ff3a00f100070009f0a700bd
:1006c00003f0a0004f04be00000006006000100010
:1006d000e080180060011900e0811900d3ff3b00a1
:1006e000033e2c00f7ff37002800fa00889fbe0069
:1006f0008a9fbe008c9fbe0007067800878669002f
:100700000c003b00030478008704780008f0a10087
:1007100009f0a100840f5000858f5800860f590002
:10072000890f5c00030033000cf0a20001003a00c6
:100730000cf0a100b90007006400e1005f00320086
:10074000780147006408e100610032006c01470055
:10075000748557003200be001201be003a04be008c
:100760001a05be001e039000be0a900085035300c8
:1007700006003d000004fd008104fd000205fd00af
:100780008305fd008703ea00050378000df8a30048
:100790000400320060041400e0841c0060051d00a9
:1007a000e0851d006022b8007d0320000d38e100c7
:1007b0008006eb000b0039004433dd00f300b2008b
:1007c0008301730039003700848272000d027800c3
:1007d000e10664008b85d1000a85d3008984d300ab
:1007e0000884d3008703e900f7ff3b0008004000be
:1007f000898048000a0149008b81490004003b00c0
:1008000060001000e080180060011900e08119000c
:100810000358a300090032008d82720084827200a6
:10082000610260008301d1000281d3008180d30086
:100830000080d3000603e8001b0037000348a30034
:1008400017003a000600e000170034000603e90034
:100850000d00a3000000480081804800020149000b
:10086000838149000348a3000f003a000600e0001e
:10087000090034000603e9000000400081804800c0
:10088000020149008381490001003a000003eb00a6
:100890000348a300f5ff32006022b80002003700d1
:1008a00084827200618266007500070003f0a10077
:1008b0000cf0a70003f0a0006c00370064014700b3
:1008c0006408e10002003a000df8a30064003a0059
:1008d0003200be001201be0064003700889fbe00d7
:1008e0008a9fbe008c9fbe000404be000605be00a9
:1008f000809fbe00829fbe008d0007000406780026
:100900000800be000a01be008900070084067800c6
:100910004f03be004f02be008d4f76007fb09700a0
:1009200013003300f0ff2f008b8f6b0006003b009d
:100930000d0666000c00a7000a00370007f0a600ad
:10094000100020000a003700880f5200898f5a00db
:100950008a0f5b008b8f5b000300390010002000c2
:1009600001003e000000200007f0a7000000ea00a0
:100970004f06be004f05be004f04be00000006003b
:10098000800078005002be005003be004439de00f3
:10099000f700b200f37f200003016100090032007c
:1009a0000218e10016003a0085017200830173000d
:1009b000838173000008200015003a0040002000e9
:1009c0001300370085017200830173008381730077
:1009d00005003a0004a8be0006a8be0010002000d2
:1009e0000b0037000201e9000402420085824a0040
:1009f00006034b0087834b000748a300f9ff320032
:100a00000740a00004a8be0006a8be0020002000e9
:100a100080009800920098000000060068044700db
:100a20000294be000094be00fc0447008694be0001
:100a30008494be0009007800d1ff07000800780008
:100a4000cfff070099007800814f70000b003b003a
:100a50000800be00480007004f00b1000300370047
:100a6000f3ff2700f2ff2f006110b9004f06be0010
:100a70004f05be004f04be000080fa0000000600d3
:100a80001800200057002000080453000d003d000e
:100a90000600200097fc2f000740e1001e003400f4
:100aa00084827200610260008301d1000281d30060
:100ab0008180d3000080d3000804e800f8ff3a00ea
:100ac0004700200061046000050474000404640011
:100ad0000d00320061004000e080480060014900e4
:100ae000e081490003b8a500070032000603e800d2
:100af0006538e10004003a008301d1000281d3008f
:100b00008180d3000080d300f87f20000830e1000e
:100b100003003500080378006000b8006011b800d9
:100b20004433dd00f300b2008301730000000600cf
:100b300005ff270005826100070032000428e1005c
:100b400001003200240005000600070001003a0001
:100b5000440005000408050002000700f9ff3a0000
:100b6000140005006f82610081027000850271002f
:100b70008502720000000600e48240001078a300a5
:100b800007003200640240001178a3003400be0068
:100b90001401be00040032000330a700000006006c
:100ba0003500be001501be000330a00000000600a5
:020000040000fa
:0200000401f009
:04000000ffff0000fe
:020000040000fa
:0200000401f009
:04000800ffff0000f6
:020000040000fa
:0200000401f009
:04000c00f9ff0000f8
:020000040000fa
:0200000401f009
:04001000dfff00000e
:020000040000fa
:0200000401f009
:040014007fff00006a
:020000040000fa
:0200000401f009
:04001800ffff0000e6
:020000040000fa
:0200000401f009
:04001c00feff0000e3
:020000040000fa
:10000800f40a0000f40a0000f40a0000f40a0000f0
:10001800f40a0000f40a0000f40a0000f40a0000e0
:10002800c4070000f40a0000f40a000050080000a9
:10003800f40a0000f40a0000f40a0000f40a0000c0
:10004800f40a0000f40a0000f40a0000f40a0000b0
:10005800f40a0000f40a0000f40a0000f40a0000a0
:10006800f40a0000f40a0000f40a0000f40a000090
:10007800f40a0000f40a0000f40a0000f40a000080
:10008800f40a0000f40a0000f40a0000f40a000070
:10009800f40a0000f40a0000f40a0000f40a000060
:1000a800f40a0000f40a0000f40a0000f40a000050
:1000b800f40a0000f40a0000f40a0000f40a000040
:1000c800f40a0000f40a0000f40a0000f40a000030
:1000d800f40a0000f40a0000f40a0000f40a000020
:1000e800f40a0000f40a0000f40a0000f40a000010
:1000f800f40a0000f40a0000f40a0000f40a000000
:10010800f40a000092070000f40a0000f40a000054
:10011800f40a0000f40a0000f40a0000b407000022
:10012800f40a0000f40a0000f40a0000f40a0000cf
:10013800f40a0000f40a0000f40a0000f40a0000bf
:10014800f40a0000f40a0000f40a0000f40a0000af
:10015800f40a0000f40a0000f40a0000f40a00009f
:10016800f40a0000f40a0000f40a0000f40a00008f
:10017800f40a0000f40a0000f40a0000f40a00007f
:10018800f40a0000f40a0000f40a0000f40a00006f
:10019800f40a0000f40a0000f40a0000f40a00005f
:1001a800f40a0000f40a0000f40a0000f40a00004f
:1001b800f40a0000f40a0000f40a0000f40a00003f
:1001c800f40a0000f40a0000f40a0000f40a00002f
:1001d800f40a0000f40a0000f40a0000f40a00001f
:1001e800f40a0000f40a0000f40a0000f40a00000f
:0801f800f40a0000f40a000003
:020000040000fa
:10020800f40a0000f40a0000f40a0000f40a0000ee
:10021800f40a0000f40a0000f40a0000f40a0000de
:10022800c4070000f40a0000f40a000050080000a7
:10023800f40a0000f40a0000f40a0000f40a0000be
:10024800f40a0000f40a0000f40a0000f40a0000ae
:10025800f40a0000f40a0000f40a0000f40a00009e
:10026800f40a0000f40a0000f40a0000f40a00008e
:10027800f40a0000f40a0000f40a0000f40a00007e
:10028800f40a0000f40a0000f40a0000f40a00006e
:10029800f40a0000f40a0000f40a0000f40a00005e
:1002a800f40a0000f40a0000f40a0000f40a00004e
:1002b800f40a0000f40a0000f40a0000f40a00003e
:1002c800f40a0000f40a0000f40a0000f40a00002e
:1002d800f40a0000f40a0000f40a0000f40a00001e
:1002e800f40a0000f40a0000f40a0000f40a00000e
:1002f800f40a0000f40a0000f40a0000f40a0000fe
:10030800f40a000092070000f40a0000f40a000052
:10031800f40a0000f40a0000f40a0000b407000020
:10032800f40a0000f40a0000f40a0000f40a0000cd
:10033800f40a0000f40a0000f40a0000f40a0000bd
:10034800f40a0000f40a0000f40a0000f40a0000ad
:10035800f40a0000f40a0000f40a0000f40a00009d
:10036800f40a0000f40a0000f40a0000f40a00008d
:10037800f40a0000f40a0000f40a0000f40a00007d
:10038800f40a0000f40a0000f40a0000f40a00006d
:10039800f40a0000f40a0000f40a0000f40a00005d
:1003a800f40a0000f40a0000f40a0000f40a00004d
:1003b800f40a0000f40a0000f40a0000f40a00003d
:1003c800f40a0000f40a0000f40a0000f40a00002d
:1003d800f40a0000f40a0000f40a0000f40a00001d
:1003e800f40a0000f40a0000f40a0000f40a00000d
:0803f800f40a0000f40a000001
:020000040000fa
:100bb0000000fa007007a80070a7a80070e7a8005e
:100bc00071a7a8007207a8007227a8007307a800e1
:100bd0007327a80073c7a80073e7a8007487a8004c
:100be0007127a9007147a9007167a9007067a90062
:100bf0000080fa00000006000000fa0081e0a80072
:100c00008200a9008400a9008b20a9008be0a90024
:100c10009400a8009b20a80000022800200888005b
:100c2000e0db2100100888009460a8008460a9001f
:100c300000022800800888000080eb00600888001f
:100c400094e0a90084e0a9000080fa0000000600fa
:100c50000000fa00e1c1bf007040b300e1e1b7005d
:100c6000e0e1a800e0c1a800e2e1a800211e200008
:100c700091407800f0c8b30000c0600001c4b30028
:100c800001407000e2e1b7000080eb00300f880007
:100c90000080fa00000006000000fa006204200054
:100ca0007305200021742000824878008348780072
:100cb00042c7a900c16920009140780000ceb3006e
:100cc00000c060000004a0009ce6b700d1692000cd
:100cd0009140780000ceb30000c060009de6b700f0
:100ce00062042000730520002174200082487800ef
:100cf0008348780042c7a800c442a900c462a90082
:100d000030012000001688003019230040168800aa
:100d10000080fa00000006000000fa008174200044
:100d20009140780000ccb30000c060009041b30057
:100d300048e7b700417420009140780000ceb3002e
:100d400000c060005040b30044e7b700313a800073
:100d500000e02f0000806000b1072000010070005b
:100d6000303a880044c7bf00f043b20044e7b70000
:100d70000080fa00000006000000fa00c1e1a900ae
:100d8000011c200091407800c0cfb30000c060007b
:100d9000c0e1b700011c20009140780030cfb300c3
:100da00000c06000c0e1b700f0472000200e8800be
:100db000011c20009140780000cfb30000c07000fb
:100dc000c0e1b700ca41a900ca01a900ca21a80010
:100dd000d0e1a800d121a900d101a900d001a9002a
:100de00010112000400e8800c8a1a900c821a90048
:100df0000000eb00402e8800c1e1a8000080fa004e
:100e0000000006000000fa000000eb00401288001d
:100e10008540a9009540a900910a200091407800e2
:100e200080cfb30000c060005040b300a9e0b7001d
:100e300000482000101288000000eb0020128800fb
:100e400000002800001288006204200073052000c2
:100e500021742000824878008348780042c7a900a6
:100e6000816a20009140780000ceb30000c060008d
:100e70000034a000a8e6b700916a200091407800f5
:100e800000ceb30000c06000d040b300a9e6b700b8
:100e9000a16a20009140780000ceb30000c060003d
:100ea000c040b300aae6b700916c200091407800e2
:100eb00000ceb30000c060007040b300c9e6b700c8
:100ec000620420007305200021742000824878000d
:100ed0008348780042c7a8000080fa00000006009e
:100ee0000200fa00000f78001e00e00006003d003e
:100ef000d421a900d521a8001e00ea00b00e880068
:100f0000d501a90005003700d401a900d501a8002a
:100f10001e007800b00e8800d521a9000080fa00dc
:100f200000000600809fbe000200fa000040800022
:100f30008000eb00010f78000000e00002003a00a2
:100f400010002000000f78009e007800014088000b
:100f500010002000204088008b20a9000080fa00ab
:100f60004f00be0000400600801f78000000fa001d
:100f700010002000104088008be0a9000080fa00db
:100f80004f00780000400600809fbe000000fa007d
:100f90003108800030bf2600808f500023003e00c3
:100fa0003108800070602100808f500009003e00f1
:100fb000c08f200001002000604088007140880040
:100fc00080c0b30009e8b700d0c0b3000ae8b7009a
:100fd00008003700408320000100200060408800a6
:100fe0007140880090c1b30009e8b700e0c1b300c8
:100ff0000ae8b700c2c2bf00704060000004e00011
:10100000040032003040800064004000304088001e
:1010100003003700304080006400500030408800fa
:1010200040c0b30008e8b700150037004083200037
:1010300001002000604088007140880090c1b3002a
:1010400009e8b700e0c1b3000ae8b700c2c2bf00b8
:10105000704060000004e000040032003040800076
:101060000000e80030408800030037003040800076
:101070000000e900304088000040eb0008e8b700bd
:101080000000eb00300888000000eb00000888003a
:101090008400a9000080fa004f00be000040060056
:1010a000801f78000000fa0008c8bf00e24f50001f
:1010b0000e003c0008c8bf000040e80008e8b70088
:1010c000c2c2bf00704060000004e00004003200b3
:1010d000304080000000e800304088000300370006
:1010e000304080000000e900304088008460a900a2
:1010f0000080fa004f007800004006001600fa0059
:1011000005ff0700e4fe0700d1fe07001aff0700f5
:10111000b9fe0700a6fe07000040eb00104798004c
:101120000040eb00004f780036ff070040c0b300de
:1011300008e8b7006000b8006011b8002007980008
:1011400031079800420798005307980010002000cc
:10115000104088004083200001002000604088008b
:101160007140880090c1b30009e8b700e0c1b30046
:101170000ae8b7000040eb00204798000000eb00b1
:10118000700798000000eb00104088000e089000e7
:10119000304088006000b8006011b8002007980057
:1011a0003107980042079800530798000000370065
:1011b0003108800040bf2600808f500008003600b4
:1011c00040832000010020006040880071408800ba
:1011d00040c6b30009e8b70060c4b3000ae8b7002e
:1011e000204080000000e000fdff32000000eb0026
:1011f00020408800200f8000000f980031408000c0
:101200000e089000008050008040880080408000e0
:10121000200f98002e0890000000e00003003d0021
:101220002e0890000000ea00200f98002e08900081
:1012300090408800804080000000e00006003d00f3
:1012400090408000c280de0000a02000008070007e
:10125000a04088000500370090408000c280de007a
:10126000f07f200000806000a04088009140800056
:1012700070612000808f50000e00340010c0b30059
:10128000004f7800a14080000040200000807000e6
:10129000a04088000000eb0011ff07006000b800cc
:1012a0006011b800200798003107980042079800a5
:1012b000530798001e4090000004e0000a0032002e
:1012c000a1408000f0bf2f0000806000a040880097
:1012d0000040eb00004f78000040eb001047980002
:1012e0000e089000304088001e04e0000400320028
:1012f000a04080000140200001007000a040880054
:10130000a1408000f0ff200000806000a040880025
:101310004322a90040c2a90040128000100f98008b
:101320001e089000610060000004e000020032002e
:1013300010c0b3001047980040c2bf006240600078
:101340000004e00021003a002e4090000004e0007c
:10135000170032006e0090000000e00009003d0020
:10136000ee009000f0ff2000008060006007980011
:10137000ee00900000002d000080700040128800f8
:1013800008003700ee009000f0ff200000806000b1
:1013900060079800ee00900000002c0000807000b4
:1013a000401288000040eb002047980007003700fb
:1013b000a0408000800078000000280000807000bd
:1013c0004012880010c0b300204798009040800071
:1013d000ff0f500002003c00cda2a8000100370022
:1013e000cda2a9009140800080612000808f500034
:1013f0006fff3c008240800009c8bf008000fb00f6
:101400000ac8bf000000fb00008040000280b80056
:1014100043fc07000002be000203be002e00900045
:10142000be0090004e019000de0190003ffc0700de
:10143000200798003107980042079800530798004a
:10144000604080007140800035fc07002e02900053
:10145000be0290004e039000de03900035fc0700b2
:101460000000e00001003400080037006040800008
:10147000714080002afc070020079800310798007f
:10148000420798005307980016003700604080001c
:101490007140800060001000e080180020fc070010
:1014a0002e029000be0290004e039000de039000da
:1014b00025fc07000000e00001003c0009003700a7
:1014c000604080007140800060001000e0801800e3
:1014d00013fc070020079800310798004207980086
:1014e000530798002e009000be0090004e0190001f
:1014f000de01900019fc0700700798007e00900044
:10150000600798007e00900075fe07008140800013
:101510000ac8bf000000fb000180b80000fc070003
:101520002007980031079800420798005307980059
:101530006040800071408000f9fb07002e0290009f
:10154000be0290004e039000de039000f9fb0700fe
:101550000000e00001003400080037006040800017
:1015600071408000eefb07002007980031079800cb
:1015700042079800530798000dff37006040800035
:101580007140800060001000e0801800e4fb07005c
:101590002e029000be0290004e039000de039000e9
:1015a000e9fb07000000e00001003c0000ff3700fd
:1015b000604080007140800060001000e0801800f2
:1015c000d7fb0700200798003107980042079800d2
:0815d00053079800f6fe3700f6
:020000040000fa
:1015d80000080000160000000000000000000000e5
:020000040000fa
:0815e8000040da000000fe00e3
:00000001FF
